{
  "_format": "hh-sol-artifact-1",
  "contractName": "TERC20",
  "sourceName": "contracts/BGERCH.sol",
  "abi": [
    {
      "inputs": [
        {
          "internalType": "string",
          "name": "name",
          "type": "string"
        },
        {
          "internalType": "string",
          "name": "symbol",
          "type": "string"
        },
        {
          "internalType": "uint8",
          "name": "decimals",
          "type": "uint8"
        }
      ],
      "stateMutability": "nonpayable",
      "type": "constructor"
    },
    {
      "inputs": [
        {
          "internalType": "address",
          "name": "spender",
          "type": "address"
        },
        {
          "internalType": "uint256",
          "name": "allowance",
          "type": "uint256"
        },
        {
          "internalType": "uint256",
          "name": "needed",
          "type": "uint256"
        }
      ],
      "name": "ERC20InsufficientAllowance",
      "type": "error"
    },
    {
      "inputs": [
        {
          "internalType": "address",
          "name": "sender",
          "type": "address"
        },
        {
          "internalType": "uint256",
          "name": "balance",
          "type": "uint256"
        },
        {
          "internalType": "uint256",
          "name": "needed",
          "type": "uint256"
        }
      ],
      "name": "ERC20InsufficientBalance",
      "type": "error"
    },
    {
      "inputs": [
        {
          "internalType": "address",
          "name": "approver",
          "type": "address"
        }
      ],
      "name": "ERC20InvalidApprover",
      "type": "error"
    },
    {
      "inputs": [
        {
          "internalType": "address",
          "name": "receiver",
          "type": "address"
        }
      ],
      "name": "ERC20InvalidReceiver",
      "type": "error"
    },
    {
      "inputs": [
        {
          "internalType": "address",
          "name": "sender",
          "type": "address"
        }
      ],
      "name": "ERC20InvalidSender",
      "type": "error"
    },
    {
      "inputs": [
        {
          "internalType": "address",
          "name": "spender",
          "type": "address"
        }
      ],
      "name": "ERC20InvalidSpender",
      "type": "error"
    },
    {
      "anonymous": false,
      "inputs": [
        {
          "indexed": true,
          "internalType": "address",
          "name": "owner",
          "type": "address"
        },
        {
          "indexed": true,
          "internalType": "address",
          "name": "spender",
          "type": "address"
        },
        {
          "indexed": false,
          "internalType": "uint256",
          "name": "value",
          "type": "uint256"
        }
      ],
      "name": "Approval",
      "type": "event"
    },
    {
      "anonymous": false,
      "inputs": [
        {
          "indexed": true,
          "internalType": "address",
          "name": "from",
          "type": "address"
        },
        {
          "indexed": true,
          "internalType": "address",
          "name": "to",
          "type": "address"
        },
        {
          "indexed": false,
          "internalType": "uint256",
          "name": "value",
          "type": "uint256"
        }
      ],
      "name": "Transfer",
      "type": "event"
    },
    {
      "inputs": [
        {
          "internalType": "uint256",
          "name": "amount",
          "type": "uint256"
        }
      ],
      "name": "_mintTERC",
      "outputs": [],
      "stateMutability": "nonpayable",
      "type": "function"
    },
    {
      "inputs": [
        {
          "internalType": "address",
          "name": "owner",
          "type": "address"
        },
        {
          "internalType": "address",
          "name": "spender",
          "type": "address"
        }
      ],
      "name": "allowance",
      "outputs": [
        {
          "internalType": "uint256",
          "name": "",
          "type": "uint256"
        }
      ],
      "stateMutability": "view",
      "type": "function"
    },
    {
      "inputs": [
        {
          "internalType": "address",
          "name": "spender",
          "type": "address"
        },
        {
          "internalType": "uint256",
          "name": "value",
          "type": "uint256"
        }
      ],
      "name": "approve",
      "outputs": [
        {
          "internalType": "bool",
          "name": "",
          "type": "bool"
        }
      ],
      "stateMutability": "nonpayable",
      "type": "function"
    },
    {
      "inputs": [
        {
          "internalType": "address",
          "name": "account",
          "type": "address"
        }
      ],
      "name": "balanceOf",
      "outputs": [
        {
          "internalType": "uint256",
          "name": "",
          "type": "uint256"
        }
      ],
      "stateMutability": "view",
      "type": "function"
    },
    {
      "inputs": [],
      "name": "decimals",
      "outputs": [
        {
          "internalType": "uint8",
          "name": "",
          "type": "uint8"
        }
      ],
      "stateMutability": "view",
      "type": "function"
    },
    {
      "inputs": [],
      "name": "name",
      "outputs": [
        {
          "internalType": "string",
          "name": "",
          "type": "string"
        }
      ],
      "stateMutability": "view",
      "type": "function"
    },
    {
      "inputs": [],
      "name": "symbol",
      "outputs": [
        {
          "internalType": "string",
          "name": "",
          "type": "string"
        }
      ],
      "stateMutability": "view",
      "type": "function"
    },
    {
      "inputs": [],
      "name": "totalSupply",
      "outputs": [
        {
          "internalType": "uint256",
          "name": "",
          "type": "uint256"
        }
      ],
      "stateMutability": "view",
      "type": "function"
    },
    {
      "inputs": [
        {
          "internalType": "address",
          "name": "to",
          "type": "address"
        },
        {
          "internalType": "uint256",
          "name": "value",
          "type": "uint256"
        }
      ],
      "name": "transfer",
      "outputs": [
        {
          "internalType": "bool",
          "name": "",
          "type": "bool"
        }
      ],
      "stateMutability": "nonpayable",
      "type": "function"
    },
    {
      "inputs": [
        {
          "internalType": "address",
          "name": "from",
          "type": "address"
        },
        {
          "internalType": "address",
          "name": "to",
          "type": "address"
        },
        {
          "internalType": "uint256",
          "name": "value",
          "type": "uint256"
        }
      ],
      "name": "transferFrom",
      "outputs": [
        {
          "internalType": "bool",
          "name": "",
          "type": "bool"
        }
      ],
      "stateMutability": "nonpayable",
      "type": "function"
    }
  ],
  "bytecode": "0x60806040523480156200001157600080fd5b5060405162000c0938038062000c0983398101604081905262000034916200013c565b8282600362000044838262000252565b50600462000053828262000252565b50506005805460ff191660ff9390931692909217909155506200031e915050565b634e487b7160e01b600052604160045260246000fd5b600082601f8301126200009c57600080fd5b81516001600160401b0380821115620000b957620000b962000074565b604051601f8301601f19908116603f01168101908282118183101715620000e457620000e462000074565b81604052838152602092508660208588010111156200010257600080fd5b600091505b8382101562000126578582018301518183018401529082019062000107565b6000602085830101528094505050505092915050565b6000806000606084860312156200015257600080fd5b83516001600160401b03808211156200016a57600080fd5b62000178878388016200008a565b945060208601519150808211156200018f57600080fd5b506200019e868287016200008a565b925050604084015160ff81168114620001b657600080fd5b809150509250925092565b600181811c90821680620001d657607f821691505b602082108103620001f757634e487b7160e01b600052602260045260246000fd5b50919050565b601f8211156200024d576000816000526020600020601f850160051c81016020861015620002285750805b601f850160051c820191505b81811015620002495782815560010162000234565b5050505b505050565b81516001600160401b038111156200026e576200026e62000074565b62000286816200027f8454620001c1565b84620001fd565b602080601f831160018114620002be5760008415620002a55750858301515b600019600386901b1c1916600185901b17855562000249565b600085815260208120601f198616915b82811015620002ef57888601518255948401946001909101908401620002ce565b50858210156200030e5787850151600019600388901b60f8161c191681555b5050505050600190811b01905550565b6108db806200032e6000396000f3fe608060405234801561001057600080fd5b506004361061009e5760003560e01c8063313ce56711610066578063313ce5671461011e57806370a082311461013357806395d89b411461015c578063a9059cbb14610164578063dd62ed3e1461017757600080fd5b806306fdde03146100a3578063095ea7b3146100c15780631140fabd146100e457806318160ddd146100f957806323b872dd1461010b575b600080fd5b6100ab6101b0565b6040516100b891906105f9565b60405180910390f35b6100d46100cf366004610664565b610242565b60405190151581526020016100b8565b6100f76100f236600461068e565b61025c565b005b6002545b6040519081526020016100b8565b6100d46101193660046106a7565b61028b565b60055460405160ff90911681526020016100b8565b6100fd6101413660046106e3565b6001600160a01b031660009081526020819052604090205490565b6100ab6102af565b6100d4610172366004610664565b6102be565b6100fd610185366004610705565b6001600160a01b03918216600090815260016020908152604080832093909416825291909152205490565b6060600380546101bf90610738565b80601f01602080910402602001604051908101604052809291908181526020018280546101eb90610738565b80156102385780601f1061020d57610100808354040283529160200191610238565b820191906000526020600020905b81548152906001019060200180831161021b57829003601f168201915b5050505050905090565b6000336102508185856102cc565b60019150505b92915050565b60055461026d9060ff16600a61086c565b61027890600a61087b565b81116102885761028833826102de565b50565b60003361029985828561031d565b6102a485858561039b565b506001949350505050565b6060600480546101bf90610738565b60003361025081858561039b565b6102d983838360016103fa565b505050565b6001600160a01b03821661030d5760405163ec442f0560e01b8152600060048201526024015b60405180910390fd5b610319600083836104cf565b5050565b6001600160a01b038381166000908152600160209081526040808320938616835292905220546000198114610395578181101561038657604051637dc7a0d960e11b81526001600160a01b03841660048201526024810182905260448101839052606401610304565b610395848484840360006103fa565b50505050565b6001600160a01b0383166103c557604051634b637e8f60e11b815260006004820152602401610304565b6001600160a01b0382166103ef5760405163ec442f0560e01b815260006004820152602401610304565b6102d98383836104cf565b6001600160a01b0384166104245760405163e602df0560e01b815260006004820152602401610304565b6001600160a01b03831661044e57604051634a1406b160e11b815260006004820152602401610304565b6001600160a01b038085166000908152600160209081526040808320938716835292905220829055801561039557826001600160a01b0316846001600160a01b03167f8c5be1e5ebec7d5bd14f71427d1e84f3dd0314c0f7b2291e5b200ac8c7c3b925846040516104c191815260200190565b60405180910390a350505050565b6001600160a01b0383166104fa5780600260008282546104ef9190610892565b9091555061056c9050565b6001600160a01b0383166000908152602081905260409020548181101561054d5760405163391434e360e21b81526001600160a01b03851660048201526024810182905260448101839052606401610304565b6001600160a01b03841660009081526020819052604090209082900390555b6001600160a01b038216610588576002805482900390556105a7565b6001600160a01b03821660009081526020819052604090208054820190555b816001600160a01b0316836001600160a01b03167fddf252ad1be2c89b69c2b068fc378daa952ba7f163c4a11628f55a4df523b3ef836040516105ec91815260200190565b60405180910390a3505050565b60006020808352835180602085015260005b818110156106275785810183015185820160400152820161060b565b506000604082860101526040601f19601f8301168501019250505092915050565b80356001600160a01b038116811461065f57600080fd5b919050565b6000806040838503121561067757600080fd5b61068083610648565b946020939093013593505050565b6000602082840312156106a057600080fd5b5035919050565b6000806000606084860312156106bc57600080fd5b6106c584610648565b92506106d360208501610648565b9150604084013590509250925092565b6000602082840312156106f557600080fd5b6106fe82610648565b9392505050565b6000806040838503121561071857600080fd5b61072183610648565b915061072f60208401610648565b90509250929050565b600181811c9082168061074c57607f821691505b60208210810361076c57634e487b7160e01b600052602260045260246000fd5b50919050565b634e487b7160e01b600052601160045260246000fd5b600181815b808511156107c35781600019048211156107a9576107a9610772565b808516156107b657918102915b93841c939080029061078d565b509250929050565b6000826107da57506001610256565b816107e757506000610256565b81600181146107fd576002811461080757610823565b6001915050610256565b60ff84111561081857610818610772565b50506001821b610256565b5060208310610133831016604e8410600b8410161715610846575081810a610256565b6108508383610788565b806000190482111561086457610864610772565b029392505050565b60006106fe60ff8416836107cb565b808202811582820484141761025657610256610772565b808201808211156102565761025661077256fea26469706673582212201281cadf986e06d7901155d81f88aa069fea095c795c97324fa4964c2d38793364736f6c63430008180033",
  "linkReferences": {},
  "deployedLinkReferences": {}
}